:020000040800F2
:100000000808002099010008ED1C0008E51C000804
:10001000E91C000895050008191E000800000000F2
:10002000000000000000000000000000F51C0008B7
:100030009905000800000000F11C0008F91C0008E8
:10004000B3010008B3010008B3010008B3010008C0
:10005000B3010008B3010008B3010008B3010008B0
:10006000B3010008B3010008B3010008B3010008A0
:10007000B3010008B3010008B3010008B301000890
:10008000B3010008B3010008B3010008B301000880
:10009000B3010008B3010008B3010008B301000870
:1000A000B3010008B3010008B3010008B301000860
:1000B000B3010008B301000800000000B30100080C
:1000C000B30100080000000000000000B3010008B8
:1000D000000000000D1E0008B30100080000000031
:1000E000B3010008B3010008B301000800F002F8F2
:1000F00000F043F80AA090E8000C82448344AAF17F
:100100000107DA4501D100F038F8AFF2090EBAE87C
:100110000F0013F0010F18BFFB1A43F0010318473B
:100120002C2600004C260000103A24BF78C878C165
:10013000FAD8520724BF30C830C144BF04680C60ED
:10014000704700000023002400250026103A28BF35
:1001500078C1FBD8520728BF30C148BF0B60704739
:100160001FB500F005F904000020002102F0C2FADA
:10017000401C60601FBD10B510BD00F0D4F81146E2
:10018000FFF7EEFF01F0D8FE00F004F903B4FFF72B
:10019000F2FF03BC00F048F90948804709480047CE
:1001A000FEE7FEE7FEE7FEE7FEE7FEE7FEE7FEE727
:1001B000FEE7FEE704480549054A064B7047000084
:1001C000FD1C0008ED0000080802002008080020BF
:1001D000080400200804002070B5064600F00CF862
:1001E0000468054630460A22002100F009F82C6018
:1001F00070BD70477047704700487047100000207E
:100200002DE9F04791460F4680460446002614F833
:10021000015B2DB100F030F80068405DC007F6D1F9
:100220002B2D02D02D2D18D0641E4A46394620466B
:1002300000F02AF827B13968A14201D1C7F800803F
:100240004FF0020471050BD54042002803DDFFF793
:10025000D3FF0460A007BDE8F08746F48066E4E7BA
:100260000028F8DAFFF7C8FF04606FF00040F2E7FB
:10027000004870471000002010B500F079F8001D0C
:1002800010BD00BF712400002DE9F05F82461546C5
:100290008B4600270AF10104B9460078302801D0C6
:1002A0009DB113E014F8010B0127782803D05828DA
:1002B00001D045B10AE00DB1102D07D1002714F887
:1002C000010B102502E0082500E00A250026B046B3
:1002D0000EE005FB080005FB06F101271FFA80F878
:1002E00001EB1046B6F5803F00D3B94614F8010B78
:1002F000294600F041F80028EBDABBF1000F05D0E9
:100300000FB1641E00E05446CBF80040B9F1000F75
:1003100006D0FFF771FF02210160C81EBDE8F09F03
:1003200048EA0640FAE77546FFF7A2FFAE46050029
:100330006946534620F00700854618B020B5FFF700
:1003400039FFBDE820404FF000064FF000074FF0A6
:1003500000084FF0000BAC46ACE8C009ACE8C0099F
:10036000ACE8C009ACE8C00921F007018D46704730
:1003700000487047300000203A2800D2303820F082
:100380002002412A01D3A2F13700884201D34FF065
:10039000FF30704710B50446AFF300802046BDE83B
:1003A0001040FFF7F3BE00004FF0013C50F8042B63
:1003B00051F8043B9A4221D1A2EB0C03934313EA78
:1003C000CC1317D150F8042B51F8043B9A4215D1A5
:1003D000A2EB0C03934313EACC130BD150F8042B7C
:1003E00051F8043B9A4209D1A2EB0C03934313EA60
:1003F000CC13DBD04FF00000704700BFD01A01BA19
:10040000B1FA81F101F0180122FA01F0CB40DBB220
:10041000C0B2C01AC1F120012CFA01F3D11A9143E4
:1004200011EAC311E6D1704701491820ABBEFEE7BF
:100430002600020070470000B0B540F60044C4F248
:1004400001040D4620460821002200F02FFA204624
:100450001021BDB1012200F029FA204620210022FE
:1004600000F024FA20460821012200F01FFAA4F52A
:10047000806500BF2846802100F012FA0028F9D1DB
:1004800016E000BF002200F011FA204620210122D0
:1004900000F00CFA20460821012200F007FAA4F52A
:1004A000806500BF2846402100F0FAF90028F9D104
:1004B000204608210022BDE8B04000F0F7B9000056
:1004C0002DE9F04140F60044C4F201040E46054611
:1004D00020464FF48051002200F0E8F920464FF406
:1004E0008041FEB1012200F0E1F920464FF40051B5
:1004F000002200F0DBF920464FF48051012200F089
:10050000D5F900BF20464FF4807100F0C9F90028EA
:10051000F8D120464FF480510022BDE8F04100F0B0
:10052000C5B900BF00224FF0000800F0BFF9204617
:100530004FF40051012200F0B9F920464FF48051E8
:10054000002200F0B3F9002DE3D040F22C17C2F2E4
:100550000007002603E000BF0136AE42D9D2204694
:100560004FF48051012200F0A1F93868C0F82480CE
:10057000416AC9087C29EFD8416AC9087C29EBD8AF
:10058000416AC9087C29E7D8416AB1F57A7FEFD37F
:10059000E2E70000FEE7000070470000014690F827
:1005A0002100022816D10868D1E90FC3026822F0A1
:1005B0000E020260026822F001020260012000FACD
:1005C00003F2CCF8042081F821000020002281F8F9
:1005D00020207047042088630120002281F8202019
:1005E0007047000080B590F82110022924D10268DC
:1005F000116821F00E0111602F211368C4F202016D
:100600008A4240F20401C4F2020123F001031360A4
:1006100016DD3023C4F202039A421DD04423C4F2F3
:1006200002039A421CD05823C4F202039A421DD1FD
:100630004FF4803322E000BF04218163012080BD9C
:100640000823C4F202039A420ED01C23C4F2020310
:100650009A420BD1102311E04FF480730EE000BFDB
:100660004FF480530AE000BF012307E001F1680C5A
:100670004FF08073624508BF4FF480130B60012177
:1006800080F82110426B002180F820100AB19047B9
:100690000021084680BD00002DE9F04F82B00E68B1
:1006A000002E00F0F98041F20002C4F2010203239F
:1006B00040F2004E904208BF02234FF6FF7CC4F286
:1006C000010E009300240123C1F2100C4FF0000B27
:1006D0004FF0000950E000BF40F60042C4F20102B2
:1006E000009F904208BF012704F00C030F229A409C
:1006F0002AEA020207FA03F34FEA9B051A4346F877
:100700002520D1F804A040F20C455FEACA22DEF8A9
:10071000082054BF22EA080242EA0802C4F2010596
:10072000CEF808202A685FEA8A2354BF22EA08022A
:1007300042EA08022A605FEA8A33DEF8042054BFE6
:1007400022EA080242EA08025FEACA33CEF804202D
:10075000DEF800204FF0010354BF22EA080242EA0B
:100760000802CEF800200E680BF1010B36FA0BF2EE
:1007700004F1040400F0908003FA0BF816EA080F65
:10078000F1D04E68664511DC122E55D8DFE806F030
:10079000340A44485454545454545454545454549F
:1007A000544C5000D1F80C9046E000BF4FF6FF7259
:1007B000C1F2210296420FDC0022C1F211029642E0
:1007C0001AD00022C1F21202964215D00022C1F2C4
:1007D0002102964210D02FE00022C1F2220296425E
:1007E0000AD00022C1F23102964205D00022C1F2A5
:1007F0003202964220D100BF8A684AB1012A14BF52
:10080000C0F81480C0F810804FF0080914E000BF51
:100810004FF0040910E000BFCA6802F108090BE0BC
:100820004FF0000908E000BFCA6802F1040903E0C4
:10083000CA6802F10C0900BF22460646BBF1080F48
:1008400024BF203A043637680F25954027EA05056E
:1008500009FA02F22A433260CA79D2067FF583AFE1
:1008600041F21803C4F202031A68AEF57E7642F034
:1008700001021A601A6802F001020192019A2BF03B
:10088000030256F802A040F60002C4F201029042B0
:100890007FF422AF002727E702B0BDE8F08F000009
:1008A0008068084018BF012070470000002A08BF78
:1008B000090401617047000040F20420C2F2000008
:1008C0000068704770B5B8B3044690F83D0028B989
:1008D000002084F83C00204600F0B0F8242084F882
:1008E0003D002068016821F001010160016841F4C8
:1008F00000410160016821F40041016000F068FAE4
:1009000048F28041C0F21E0140F60013D4F804E022
:1009100088424FF00001C0F23D0348F2A16C4FF055
:10092000000238BF01219842C0F2010C38BF0122F9
:10093000E64538BF0A460AB1012070BD4DF6836115
:10094000C4F21B31A0FB01122168950C4B684FF4D7
:10095000967623F03F0343EA9243754344F6D35619
:100960004B60C1F262060B6AA5FB0656B50923F07F
:100970003F03E64538BF950C6A1C1A430A62CA69F0
:1009800048F2A0664CF6FF73C0F20106B64522EAB3
:1009900003020BD801384FEA4E03B0FBF3F00130ED
:1009A0006FF31F30042898BF04201EE0A3680138AD
:1009B00063B119230EFB03F3B0FBF3F001306FF3C7
:1009C0001F3078B100F5804008E000BF0EEB4E0309
:1009D000B0FBF3F001306FF31F3028B100F5004099
:1009E00003E000BF012000E001201043C861086857
:1009F000D4E9072320F0C00010431843086088683A
:100A000048F2FF3204F10C0690434CCE18431043D9
:100A1000A5698860C86820F0FF0030432843C8609B
:100A2000086840F00100086000202021206484F85C
:100A30003D10206384F83E0070BD000010B586B004
:100A4000016845F20040C4F20000814202D006B0C5
:100A500010BD00BF41F21804C4F20204216800F581
:100A6000384041F008012160216801F0080102913D
:100A70000299C021029112210391002104910321C6
:100A8000059102A9FFF708FE606840F4001060605D
:100A9000606800F400100190019806B010BD0000DD
:100AA00040F2000040F20421C2F20000C2F2000154
:100AB00000780A68104408607047000080B542F270
:100AC0000000C4F20200016841F01001016003203F
:100AD00000F08EF80F2000F005F800F027F8002055
:100AE00080BD000070B540F20006C2F2000640F280
:100AF00008013278C2F200014FF47A730968B3FB3F
:100B0000F2F20446B1FBF2F1084600F063FB0F2C51
:100B10004FF0010508D838B94FF0FF3021460022C8
:100B2000002500F039F87460284670BD82B041F2AB
:100B30001800C4F202000168022241F001010160C4
:100B4000016801F0010101910199416841F0805172
:100B50004160406800F08050009000980420C4F28A
:100B60000100016862F31A61016002B07047000081
:100B7000002848BF7047C1B200F01F00012202FAEE
:100B800000F04EF20012CEF2000242EAD10121F052
:100B9000030108607047000010B54EF60C5CCEF201
:100BA000000CDCF80030C3F3022E8EF00704042C96
:100BB00028BF0424BEF103034FF0FF3E0EFA04F4F5
:100BC00038BF0023A14399400EFA03F39A4311431F
:100BD00000F00F0200F160430901043A03F5644399
:100BE0006244002848BF02F10C03197010BD0000D8
:100BF0004EF60C51CEF200010A684FF6FF031A4080
:100C000060F30A2242F0806040F0FD700860704797
:100C10002DE9F04381B0002800F0858042F2000801
:100C2000C4F202080446D8F800000D4600F00700A0
:100C300088420CD2D8F8000020F007002843C8F8FA
:100C40000000D8F8000000F00700A8426BD120682F
:100C500041F204098107C4F2020917D5410705D5FD
:100C6000D9F8001041F4E061C9F80010010705D57A
:100C7000D9F8001041F46051C9F80010D9F80010FB
:100C8000A26821F0F0011143C9F80010C00741D15A
:100C9000D8F8000000F00700A8420CD9D8F80000EE
:100CA00020F007002843C8F80000D8F8000000F042
:100CB0000700A84237D12068410707D5D9F80010AE
:100CC000E26821F4E0611143C9F80010000708D57B
:100CD000D9F80000216920F4605040EAC100C9F849
:100CE0000000D9F8002002F00C00082841F2002092
:100CF000C0F27A0050D142F23A73C2F38341C0F697
:100D00000003595CD2033BD440F60010C0F23D0012
:100D1000484341E0606802280AD001282AD159F8E6
:100D2000041C890308D4012001B0BDE8F08300BF92
:100D300059F8041C8901F6D5D9F8001021F00301F7
:100D40000843C9F80000FFF7B7FD064641F28837AF
:100D5000D9F80000616800F00C00B0EB810F97D06B
:100D6000FFF7AAFD801BB842F2D9032001B0BDE80D
:100D7000F08300BF59F8041C8907D4D5DCE700BF15
:100D8000D9F8002042F23873C2F34042C0F60003A3
:100D90009A5C4843B0FBF2F0D9F8001042F220729E
:100DA000C1F30311C0F60002515C40F2080220FAC0
:100DB00001F140F20400C2F200000068C2F2000239
:100DC0001160FFF78FFE002001B0BDE8F083000046
:100DD00040F2080041F20401C2F20000C4F2020134
:100DE0000068096842F23072C1F30221C0F60002C5
:100DF000515CC8407047000040F2080041F2040115
:100E0000C2F20000C4F202010068096842F23072C6
:100E1000C1F3C221C0F60002515CC8407047000017
:100E20002DE9F04182B0002868D00446007841F2F4
:100E30000006C007C4F2020625D0706800F00C005E
:100E400004281BD0706800F00C00082802D17068DC
:100E5000C00313D46068002800F06881B0F5A02FAB
:100E600000F07C81B0F5803F00F07C81306820F498
:100E700080303060306820F4802076E13068800374
:100E800001D56068D0B32078800718D5706810F05D
:100E90000C0F07D0706800F00C0008286ED1706845
:100EA000C0036BD43068800702D52069012825D1A2
:100EB0003068616920F0F80040EAC10030602078B5
:100EC00000071FD42078400732D4E56995B17068D7
:100ED00000F00C00082840F08F80012D0ED07068C3
:100EE000216A00F480328A4208D1616A00F47010ED
:100EF000884203D1002002B0BDE8F081012002B099
:100F0000BDE8F081A069002862D00020C4F2422030
:100F10000121C0F88014FFF7CFFC0546706A8007F6
:100F200000F18C80FFF7C8FC401B0228F6D92AE1AB
:100F3000F06910F0805808D1F06940F08050F061FD
:100F4000F06900F080500090009847F20007C4F26A
:100F500000073868C00529D4386840F480703860CC
:100F6000FFF7AAFC054600BF3868C0051ED4FFF78E
:100F7000A3FC401B6428F7D905E100BF20690028C5
:100F800040F20000C4F2422000F0828001210160A2
:100F9000FFF792FC054600BF306880073FF588AF39
:100FA000FFF78AFC401B0228F6D9ECE0E068002835
:100FB00000F08080052800F09780012800F09880DC
:100FC000306A20F001003062306A20F0040092E0C4
:100FD0000020C4F242200021C0F88014FFF76CFC0E
:100FE000054600BF706A80077FF56CAFFFF764FCB1
:100FF000401B0228F6D9C6E00027C4F24227002091
:101000003866FFF759FC022D05460BD13068800188
:1010100040F1BE80FFF750FC401B02284FF0030058
:10102000F4D968E7306880017FF564AFFFF744FCCE
:10103000401B02284FF00300F4D95CE740F208009F
:10104000C2F20000006844F6D351C1F26201A0FB75
:101050000101480A019000BF00BF0198411E00280D
:1010600001913FF42FAF00BF0198411E002801916C
:101070003FF428AF00BF0198411E002801913FF4C2
:1010800021AF00BF0198411E00280191E4D119E76A
:1010900000210160FFF710FC054600BF30688007A3
:1010A0007FF50DAFFFF708FC401B02284FF003004F
:1010B000F4D920E7306A20F001003062306A20F075
:1010C00004003062FFF7F8FB054641F2883700BFA5
:1010D000306A800720D5FFF7EFFB401BB8424FF086
:1010E0000300F5D907E700BF306A40F00400306222
:1010F000306A40F001003062FFF7DEFB054641F246
:10110000883700BF306A800706D4FFF7D5FB401B45
:10111000B842F7D937E000BFB8F1000F7FF4D5AE81
:10112000F06920F08050F061CFE600BF306820F415
:1011300080303060306820F480203060FFF7BCFBE6
:10114000054600BF306880037FF59DAEFFF7B4FB16
:10115000401B64284FF00300F4D9CCE6306840F41B
:1011600080203060306840F480303060FFF7A4FBAE
:10117000054600BF306880033FF585AEFFF79CFB56
:10118000401B6428F6D9032002B0BDE8F08100BFFF
:10119000206AB0F5803F05D17168A26821F4003162
:1011A000114371607168626A21F47411114308433C
:1011B000706001203866FFF77FFB044630688001CD
:1011C0003FF598AEFFF778FB001B02284FF00300B5
:1011D000F4D990E6411E0020B0EB116F1CBF012036
:1011E00070474EF21002CEF2000251604EF62351CB
:1011F000CEF20001F0230B70072190601160704760
:1012000010B590F83C20012A4FF0020225D080F85A
:101210003D200268D2F804E0D2F808C00C682EF035
:1012200070032343B2F1804F53600BD042F600436A
:10123000C4F201039A4205D040F20043C4F2000315
:101240009A4204D149682CF080031943916001212E
:10125000002280F83D1080F83C20104610BD0000B0
:10126000002804BF0120704710B5044690F83D00E7
:1012700028B9002084F83C00204600F051F80220F4
:1012800084F83D00206842F6004C0268B0F1804FBF
:10129000C4F2010C18BF604504D1A36822F07002AB
:1012A0001A4305E040F20043C4F200039842F4D030
:1012B000B0F1804F18BF604504D1236922F4407219
:1012C0001A4305E040F20043C4F200039842F4D010
:1012D000A16922F08002D4F804E0E368114360457C
:1012E0000160C362C0F828E002D16169CCF8301017
:1012F00001214161002084F8461084F83E1084F8F2
:101300003F1084F8401084F8411084F8421084F8AB
:10131000431084F8441084F8451084F83D1010BD43
:1013200083B00068B0F1804F1ED040F20041C4F29B
:101330000001884228D042F60041C4F201018842EF
:101340002FD141F21C00C4F2020050F8041C41F4F9
:10135000006140F8041C50F8040C00F40060029096
:10136000029803B0704700BF41F21C00C4F20200B3
:10137000016841F001010160006800F00100019086
:10138000019803B0704700BF41F21C00C4F2020094
:10139000016841F002010160006800F00200009065
:1013A000009803B07047000090F83D1001291CBF61
:1013B00001207047022180F83D100068B0F1804F95
:1013C0000BD042F60041C4F20101884205D040F240
:1013D0000041C4F20001884206D1816801F0070192
:1013E000062904BF00207047016841F00101016037
:1013F0000020704780B590F83C20012A4FF002028F
:1014000000F0C28080F83D20D0F800C04FF677721F
:10141000DCF8083023EA0202CCF808200B684F2BD6
:1014200028DC1F2B44DD202B45D0302B43D0402B14
:1014300040F0AC80D1F804E0C968DCF82030DCF87A
:10144000202022F00102CCF82020DCF8182022F025
:10145000F00242EA011123F00A0242EA0E02CCF83D
:101460001810CCF82020DCF8081041F0470121F0DA
:10147000300180E06F2B27DDB3F5005F48D0B3F576
:10148000805F7AD0702B40F08180D1E901E3C96898
:10149000DCF8082043EA0E0322F47F4243EA0121EC
:1014A0001143CCF80810DCF8081041F0770162E035
:1014B0000BB1102B6AD1DCF8081021F07001194330
:1014C00041F0070157E000BF502B35D0602B5DD1B4
:1014D000D1F804E0C968DCF82030DCF8202022F0E4
:1014E0001002CCF82020DCF8182022F4704242EAE6
:1014F000013123F0A00242EA0E12CCF81810CCF809
:101500002020DCF8081041F0670121F0100132E0E2
:10151000D1E901E3C968DCF8082043EA0E0322F4AC
:101520007F4243EA01211143CCF80810DCF808108F
:1015300041F480411FE000BFD1F804E0C968DCF845
:101540002030DCF8202022F00102CCF82020DCF84A
:10155000182022F0F00242EA011123F00A0242EAC6
:101560000E02CCF81810CCF82020DCF8081041F05E
:10157000570121F02001CCF808100022012180F849
:101580003D10002180F83C10104680BD0122F5E797
:101590007047000070470000B0B582B00446006894
:1015A0000168C368426901F02F05202D03F0200572
:1015B00006D12DB1204602B0BDE8B04000F0A6BB78
:1015C0005FEA017C1EBF02F0010E03F4907212EB81
:1015D0000E0253D1226B012A05D111F0100218BF5F
:1015E00013F0100236D10A0622D513F080021FD064
:1015F00094F8411021293FD1A168B1F5805F03D152
:101600002169002900F07082216A4A1C226209784F
:101610004160E18C01390A04E1842DD1C16821F0D7
:101620008001C160C16841F04001C16002B0B0BD3D
:10163000490621D513F040011ED0C16821F04001B8
:10164000C1602021204684F8411002B0BDE8B040BE
:1016500000F046BB002101910168019141680191B0
:1016600001994069400613D4A08DE18DE28D002AD6
:1016700018BF884240F0BA8102B0B0BDCA0718BF97
:1016800013F4807240F0B6804A0700F1B980BEE0E2
:10169000E06B016849688AB2002AEDD0A38D9A42B6
:1016A000EAD2E1858069202800F09C80206850E81B
:1016B000030F216820F4807041E80302DAB120684A
:1016C00050E8030F216820F4807041E8030292B1D2
:1016D000206850E8030F216820F4807041E803027D
:1016E0004AB1206850E8030F216820F4807041E877
:1016F0000302002ADAD1206850E8050F216820F0A3
:10170000010041E80502DAB1206850E8050F2168C0
:1017100020F0010041E8050292B1206850E8050F71
:10172000216820F0010041E805024AB1206850E834
:10173000050F216820F0010041E80502002ADAD1F6
:10174000206850E8050F216820F0400041E80502BC
:10175000DAB1206850E8050F216820F0400041E828
:10176000050292B1206850E8050F216820F0400082
:1017700041E805024AB1206850E8050F216820F0D1
:10178000400041E80502002ADAD1202084F8420016
:1017900000202063206850E8030F216820F010002B
:1017A00041E80302DAB1206850E8030F216820F015
:1017B000100041E8030292B1206850E8030F21684D
:1017C00020F0100041E803024AB1206850E8030FFE
:1017D000216820F0100041E80302002ADAD1E06B12
:1017E000FEF7DCFE02206063A08DE18D401A81B21D
:1017F000204674E1626C42F0010262644A0706D539
:10180000BEF1000F03D0626C42F0020262648A07EC
:1018100006D5BEF1000F03D0626C42F00402626490
:10182000BCF1000F09D545EA0E02B2FA82F2520964
:1018300003D1626C42F008026264626C002A3FF4D9
:101840001BAF11F0200118BF002D03D0204600F07F
:101850005DFA20684069616C00F0400001F0080109
:10186000401800F0B58000BF206850E8030F2168E1
:1018700020F4907041E80302BAB3206850E8030FE7
:10188000216820F4907041E8030272B3206850E8A8
:10189000030F216820F4907041E803022AB3206806
:1018A00050E8030F216820F4907041E80302002AF9
:1018B000DAD11AE0206850E8050F216820F0010015
:1018C00041E80502DAB1206850E8050F216820F0F0
:1018D000010041E8050292B1206850E8050F216837
:1018E00020F0010041E805024AB1206850E8050FE8
:1018F000216820F0010041E80502002ADAD1206BBE
:10190000012824D1206850E8030F216820F010003E
:1019100041E80302DAB1206850E8030F216820F0A3
:10192000100041E8030292B1206850E8030F2168DB
:1019300020F0100041E803024AB1206850E8030F8C
:10194000216820F0100041E80302002ADAD12020AB
:1019500084F84200002020632068406940063FD59B
:10196000206850E8050F216820F0400041E805029A
:10197000DAB1206850E8050F216820F0400041E806
:10198000050292B1206850E8050F216820F0400060
:1019900041E805024AB1206850E8050F216820F0AF
:1019A000400041E80502002ADAD1E06BC0B141F6FF
:1019B0000151C0F600014163FEF714FE00283FF418
:1019C0005BAEE06B416B02B0BDE8B040084700BFC2
:1019D0002046FFF7DFFD0020606402B0B0BD00BF0D
:1019E000204602B0BDE8B040FFF7D4BD401A2168E0
:1019F00051E8031F226821F4907142E80313DBB120
:101A0000216851E8031F226821F4907142E8031312
:101A100093B1216851E8031F226821F4907142E8D4
:101A200003134BB1216851E8031F226821F4907120
:101A300042E80313002BDAD1216851E8051F226820
:101A400021F0010142E80513DBB1216851E8051FCF
:101A5000226821F0010142E8051393B1216851E8A1
:101A6000051F226821F0010142E805134BB12168EE
:101A700051E8051F226821F0010142E80513002BFF
:101A8000DAD1202184F8421000212163216851E835
:101A9000031F226821F0100142E80313DBB1216823
:101AA00051E8031F226821F0100142E8031393B1AB
:101AB000216851E8031F226821F0100142E8031356
:101AC0004BB1216851E8031F226821F0100142E860
:101AD0000313002BDAD1022281B22046626302B0E6
:101AE000BDE8B040FFF754BD216A31F8022B6FF317
:101AF0005F22426021628CE5002804BF012070470C
:101B000010B5044690F8410028B9002084F8400040
:101B1000204600F063F8242084F841002068D4E9CE
:101B20000212C36823F40053C360036923F44053D3
:101B30001A430261D4E904231143C268194341F2F4
:101B40000C639A431143C1604169A26921F4407159
:101B5000114343F60002C4F201029042416103D0F6
:101B6000FFF736F902E000BFFFF746F96268192176
:101B700048439100B0FBF1F048F21F51C5F2EB1160
:101B8000A0FB01235A094FF69C73C0F6FF7302FBBA
:101B90000300322303EB0010A0FB0101F02303EA52
:101BA0005113206803EB0212C1F343111144816009
:101BB000016921F490410161416921F02A014161EB
:101BC000C16841F40051C16000202021606484F8A4
:101BD000411084F84210606310BD000070B586B0FB
:101BE00040F60004C4F20104006804F540510026E8
:101BF0008842049602D006B070BD00BF41F21800C2
:101C0000C4F20200016802AD41F480410160016844
:101C100001F4804101910199016841F004010160E2
:101C20000068294600F00400019001984FF400700C
:101C3000029002200390032005902046FEF72CFD21
:101C40004FF48060CDE90206204629460496FEF74F
:101C500023FD252000210022FEF79EFF2520FEF710
:101C600087FF06B070BD000090F84230202B1CBFEB
:101C70000220704700294FF0010318BF002A01D14C
:101C80001846704700230363816222218285C28542
:101C9000436480F842100169006819B1C16841F4D9
:101CA0008071C1604169002341F001014161C16857
:101CB00041F02001C160184670470000B0B540F205
:101CC0008804C2F20004254615F8040B00F0F2FB6C
:101CD000284621460122BDE8B040FFF7C5BF0000FD
:101CE00070470000FEE70000FEE70000FEE700008E
:101CF0007047000070470000FEF7D2BE704700003A
:101D0000406A0021C185C184FFF744BC81B090F8CE
:101D10004210222921D183680246B3F5805F09D1A0
:101D200052F8281F52F8183C002B63D003685B68F8
:101D30000AE000BF52F8281F13B90369002BF5D041
:101D400003685B6803F07F030B7011680131116059
:101D5000C18D01390A04C18502D001B0704700BFAE
:101D60000168CA6822F02002CA60CA6822F4807240
:101D7000CA604A6922F001024A61202180F84210BB
:101D800000214163026B012A3CD10163016851E8E3
:101D9000031F026821F0100142E80313DBB1016860
:101DA00051E8031F026821F0100142E8031393B1C8
:101DB000016851E8031F026821F0100142E8031393
:101DC0004BB1016851E8031F026821F0100142E89D
:101DD0000313002BDAD101680A68D20606D5002267
:101DE00000920A680092496800910099818D01B0C3
:101DF000FFF7CEBB026852686FF35F2221F8022B17
:101E00008162A5E701B0FFF759BF000040F28C00E6
:101E1000C2F20000FFF7C0BBFEE700002DE9F0476B
:101E200040F6000AC4F2010A0D460646504620213B
:101E300001220124FEF73AFD504610210122FEF74F
:101E400035FD504608210122FEF730FDF2B2504622
:101E50000221FEF72BFD012D66DB4FF4487005FBD8
:101E600000F640F20C0940F22C17012ED8BF26468E
:101E70004FF00008C2F20009C2F200070AF58065BF
:101E800000240BE028464FF40061FEF709FD00280E
:101E90004CD00134B44208BFBDE8F087504604215D
:101EA0000122FEF703FDD9F800103868CA1701EBCC
:101EB000D261C1F34F11C0F8248000BF426A8A4248
:101EC00008D2426A8A4205D2426A8A4202D2426AF1
:101ED0008A42F3D3504604210022FEF7E7FCD9F8EA
:101EE00000103868CA1701EBD261C1F34F11C0F876
:101EF000248000BF426A8A4208D2426A8A4205D2DE
:101F0000426A8A4202D2426A8A42F3D328464FF496
:101F10008061FEF7C5FC0028B4D101200321BDE893
:101F2000F04700F0B1B900BFBDE8F0870020032101
:101F3000BDE8F04700F0A8B990B0FEF7BFFD00245F
:101F40000120CDE90B44CDE9094406900A904FF4F5
:101F5000E0104FF4803102250F9006A8CDE9071458
:101F6000CDE90D51FEF75CFF20B1EFF3108072B6A2
:101F7000FEE700BF0F20CDE900054FF48060CDE9FA
:101F80000304684602210294FEF742FE20B1EFF3FB
:101F9000108072B6FEE700BF41F21800C4F20200E2
:101FA000016840F6000941F0100101600168C4F2C7
:101FB000010901F0100106910699016809F5006711
:101FC00041F0200101600168002201F0200106912A
:101FD000069901684FF4005641F004010160016860
:101FE000002401F0040106910699016841F00801FE
:101FF000016000684FF4005100F008000690069858
:102000003846FEF753FC484641F63E01002241F6B1
:102010003E08FEF74BFC09F58065284647F238017B
:102020000022FEF743FC069606AE4FF0010A4FF081
:10203000020B38463146CDE907A4CDF824B0FEF7AF
:102040002BFB48463146CDE9068ACDE9084BFEF721
:1020500023FBC02006A981E8110448463146FEF75B
:102060001BFB40F6037006A981E81104284631469F
:10207000FEF712FB47F23800CDE9060A2846314642
:10208000CDE9084BFEF708FB40F2D800A9F5344132
:10209000C2F2000048F2A0624FF48043C0F2010295
:1020A00080E81600C0E90343C0E90544C0E90744DD
:1020B000FEF708FC20B1EFF3108072B6FEE700BF18
:1020C00040F22C1009F51051C2F200004FF6FF73D8
:1020D0000994CDE90744CDE90044472280E8160081
:1020E000C0E90334C0E90544FFF7BAF820B1EFF3C3
:1020F000108072B6FEE700BF4FF48050069040F2A9
:102100002C10C2F2000006A9FFF774F920B1EFF31A
:10211000108072B6FEE700BF40F22C10C2F2000041
:102120006946FFF76DF828B1EFF3108072B600BF73
:10213000FEE700BF40F28805C2F2000509F54051F4
:10214000284640F8041F4FF4E13100240C22C0E976
:102150000114C0E90344C0E90524C461FFF7CCFCC5
:1021600020B1EFF3108072B6FEE700BF40F27410AA
:10217000C2F200004FF080414FF6FF730994CDE9A1
:102180000744CDE90044472280E81600C0E9033443
:102190008461FFF765F828B1EFF3108072B600BFD5
:1021A000FEE700BF4FF48050069040F27410C2F278
:1021B000000006A9FFF71EF920B1EFF3108072B6F8
:1021C000FEE700BF40F27410C2F200006946FFF75C
:1021D00017F828B1EFF3108072B600BFFEE700BF1A
:1021E00040F2BC100021A9F58232C2F20000472360
:1021F0004FF6FF770991CDE90711CDE90011C0E94C
:102200000023C0E9021701618161FFF729F818B1C5
:10221000EFF3108072B6FEE74FF48050069040F264
:10222000BC10C2F2000006A9FFF7E4F820B1EFF3FA
:10223000108072B6FEE700BF40F2BC10C2F2000090
:102240006946FEF7DDFF18B1EFF3108072B6FEE7C6
:1022500040F22C10C2F20000FFF7A6F82C1D204619
:1022600029460122FFF700FD00206421FFF7D6FD7B
:10227000204600F07FF940F27004C2F2000420789A
:1022800000F07EF9FBE700002DE9F04381B040F655
:102290000008C4F201080D460646404620210122EE
:1022A0000124FEF703FB404610210122FEF7FEFA4F
:1022B000404608210122FEF7F9FAF2B24046022117
:1022C000FEF7F4FA012D4BDB4FF448704543012D26
:1022D000D8BF254640F20C0740F22C144FF00009FD
:1022E000C2F20007C2F20004002602E00136AE424C
:1022F00036D0404604210122FEF7D8FA396820681A
:10230000CA1701EBD261C1F34F11C0F8249000BF8E
:10231000426A8A4208D2426A8A4205D2426A8A42A4
:1023200002D2426A8A42F3D3404604210022FEF7D9
:10233000BDFA39682068CA1701EBD261C1F34F11A9
:10234000C0F82490426A8A42D0D2426A8A42CDD2F0
:10235000426A8A42CAD2426A8A42F3D3C6E700BFBF
:1023600001B0BDE8F083000080B500284DD040F2F8
:102370002C11C2F200010968421E92B22431032AD4
:1023800000F0030C42D2BCF1000F3ED000200860E8
:102390000868C0087C280BD80868C0087C2807D8C3
:1023A0000868C0087C2803D80868B0F57A7FEFD3A6
:1023B000BCF1010F29D00020086000BF0868C008E8
:1023C0007C280BD80868C0087C2807D80868C00893
:1023D0007C2803D80868B0F57A7FEFD3BCF1020FF0
:1023E00013D00020086008E00868C0087C2888BF77
:1023F00080BD0868B0F57A7F07D20868C0087C28DD
:1024000003D80868C0087C28EED980BD20F0030EF0
:102410000023002204E000BF043290B27045B2D025
:102420000B6000BF0868C0087C280BD80868C0088B
:102430007C2807D80868C0087C2803D80868B0F54D
:102440007A7FEFD30B6000BF0868C0087C280BD8E8
:102450000868C0087C2807D80868C0087C2803D80A
:102460000868B0F57A7FEFD30B6000BF0868C0083A
:102470007C280BD80868C0087C2807D80868C008E2
:102480007C2803D80868B0F57A7FEFD30B6000BFD3
:102490000868C0087C28BFD80868C0087C28BBD85A
:1024A0000868C0087C28B7D80868B0F57A7FEFD3F1
:1024B000B2E700002DE9F04381B0652857D00D2820
:1024C0000AD00A284AD140F27000C2F2000001216D
:1024D000017001B0BDE8F08340F60008C4F20108C5
:1024E00042F6244640464FF400610122C4F2010640
:1024F000FEF7DCF940F2700749F280644FF0000902
:1025000008F58065C2F20007C0F29804C6F8009092
:1025100028460121FEF7C4F990B13068002808BFB1
:10252000C7F80C903068F968BA68401A1044B8606F
:102530003068F860B868A042EAD30020B860F8605C
:102540004FF4FA70FFF710FF40464FF4006100228D
:1025500001B0BDE8F043FEF7A9B900BF40F2700139
:10256000C2F20001CA78531CCB701144087401B048
:10257000BDE8F08340F2D401C2F200010860704768
:102580002DE9F04381B0C8B140F27006C2F20006F6
:1025900006F11000FDF720FEB070002030613075AC
:1025A000F0703070B1787278B07891420AD9717851
:1025B000401AB080B188012012E000BF01B0BDE830
:1025C000F08300BF7178884208D2B0787178401AE1
:1025D00048BF4042B080B188002001E000200021C7
:1025E000FFF71CFC40F6000842F62447C4F201083D
:1025F000B07849F27F64C4F20107C0F298044FF04A
:10260000000908F580657070C7F80090284602211F
:10261000FEF746F990B13868002808BFC6F80C905C
:102620003868F168B268401A1044B0603868F060E9
:10263000B068A042EAD90020B060F0604FF4FA70B0
:10264000FFF792FE40464FF480510122FEF72EF92B
:102650004FF4FA700121FDF733FFC820FFF784FE25
:102660004FF42F7000214FF00009FDF7E5FE4FF405
:10267000FA700021FDF724FF4FF42F700121FDF7C0
:10268000DBFE40464FF480510022FEF70FF94FF475
:10269000FA70FFF769FE40464FF400610122FEF731
:1026A00005F9C7F8009000BF28460121FEF7F8F8A9
:1026B00090B13868002808BFC6F80C903868F168F7
:1026C000B268401A1044B0603868F060B068A04248
:1026D000EAD90020B060F0604FF4FA70FFF744FED2
:1026E00040464FF40061002201B0BDE8F043FEF720
:1026F000DDB8000010B500290AD00878002807D0FE
:1027000005487844FDF750FE002801D0002010BD98
:102710000248784410BD00006A000000620000001A
:102720000000000000000000010203040607080981
:102730000000000001020304010202030405060771
:1027400008090A0B0C0D0E0F10100000802800085D
:102750000000002010000000280100089028000858
:1027600010000020F80700004401000810010000DC
:1027700043000000F8FFFFFF004040404040404061
:102780004040414141414140404040404040404044
:1027900040404040404040404005020202020202E8
:1027A0000202020202020202022020202020202037
:1027B000202020020202020202029090909090904B
:1027C0001010101010101010101010101010101009
:1027D000101010100202020202028888888888887D
:1027E0000808080808080808080808080808080869
:1027F0000808080802020202400000000000000071
:1028000000000000000000000000000000000000C8
:1028100000000000000000000000000000000000B8
:1028200000000000000000000000000000000000A8
:102830000000000000000000000000000000000098
:102840000000000000000000000000000000000088
:102850000000000000000000000000000000000078
:102860000000000000000000000000000000000068
:102870000000000000000000000000000000000058
:1028800001000000100000000024F400F40100002A
:04000005080000ED02
:00000001FF
